{
  "_format": "hh-sol-artifact-1",
  "contractName": "EnsRegistrar",
  "sourceName": "contracts/Registrars/EnsRegistrar.sol",
  "abi": [
    {
      "inputs": [
        {
          "internalType": "address",
          "name": "_ensRegistryAddress",
          "type": "address"
        },
        {
          "internalType": "address",
          "name": "_sciRegistryAddress",
          "type": "address"
        }
      ],
      "stateMutability": "nonpayable",
      "type": "constructor"
    },
    {
      "inputs": [
        {
          "internalType": "address",
          "name": "account",
          "type": "address"
        },
        {
          "internalType": "bytes32",
          "name": "domainHash",
          "type": "bytes32"
        }
      ],
      "name": "AccountIsNotEnsOwner",
      "type": "error"
    },
    {
      "inputs": [],
      "name": "ensRegistry",
      "outputs": [
        {
          "internalType": "contract ENS",
          "name": "",
          "type": "address"
        }
      ],
      "stateMutability": "view",
      "type": "function"
    },
    {
      "inputs": [
        {
          "internalType": "address",
          "name": "owner",
          "type": "address"
        },
        {
          "internalType": "bytes32",
          "name": "domainHash",
          "type": "bytes32"
        }
      ],
      "name": "registerDomain",
      "outputs": [],
      "stateMutability": "nonpayable",
      "type": "function"
    },
    {
      "inputs": [
        {
          "internalType": "bytes32",
          "name": "domainHash",
          "type": "bytes32"
        },
        {
          "internalType": "contract IVerifier",
          "name": "verifier",
          "type": "address"
        }
      ],
      "name": "registerDomainWithVerifier",
      "outputs": [],
      "stateMutability": "nonpayable",
      "type": "function"
    },
    {
      "inputs": [],
      "name": "registry",
      "outputs": [
        {
          "internalType": "contract ISciRegistry",
          "name": "",
          "type": "address"
        }
      ],
      "stateMutability": "view",
      "type": "function"
    }
  ],
  "bytecode": "0x60c060405234801561001057600080fd5b5060405161082e38038061082e83398181016040528101906100329190610104565b8173ffffffffffffffffffffffffffffffffffffffff1660808173ffffffffffffffffffffffffffffffffffffffff16815250508073ffffffffffffffffffffffffffffffffffffffff1660a08173ffffffffffffffffffffffffffffffffffffffff16815250505050610144565b600080fd5b600073ffffffffffffffffffffffffffffffffffffffff82169050919050565b60006100d1826100a6565b9050919050565b6100e1816100c6565b81146100ec57600080fd5b50565b6000815190506100fe816100d8565b92915050565b6000806040838503121561011b5761011a6100a1565b5b6000610129858286016100ef565b925050602061013a858286016100ef565b9150509250929050565b60805160a0516106b161017d6000396000818160da0152818161017601526101ca01526000818161019a015261027c01526106b16000f3fe608060405234801561001057600080fd5b506004361061004c5760003560e01c80634c7464cf146100515780637b1039991461006d5780637d73b2311461008b578063a8c00861146100a9575b600080fd5b61006b6004803603810190610066919061041d565b6100c5565b005b610075610174565b60405161008291906104bc565b60405180910390f35b610093610198565b6040516100a091906104f8565b60405180910390f35b6100c360048036038101906100be919061053f565b6101bc565b005b6100cd61025b565b826100d88282610263565b7f000000000000000000000000000000000000000000000000000000000000000073ffffffffffffffffffffffffffffffffffffffff1663dd738e6c61011c61025b565b86866040518463ffffffff1660e01b815260040161013c939291906105be565b600060405180830381600087803b15801561015657600080fd5b505af115801561016a573d6000803e3d6000fd5b5050505050505050565b7f000000000000000000000000000000000000000000000000000000000000000081565b7f000000000000000000000000000000000000000000000000000000000000000081565b81816101c88282610263565b7f000000000000000000000000000000000000000000000000000000000000000073ffffffffffffffffffffffffffffffffffffffff1663a8c0086185856040518363ffffffff1660e01b81526004016102239291906105f5565b600060405180830381600087803b15801561023d57600080fd5b505af1158015610251573d6000803e3d6000fd5b5050505050505050565b600033905090565b8173ffffffffffffffffffffffffffffffffffffffff167f000000000000000000000000000000000000000000000000000000000000000073ffffffffffffffffffffffffffffffffffffffff166302571be3836040518263ffffffff1660e01b81526004016102d3919061061e565b602060405180830381865afa1580156102f0573d6000803e3d6000fd5b505050506040513d601f19601f82011682018060405250810190610314919061064e565b73ffffffffffffffffffffffffffffffffffffffff161461036e5781816040517f36b852100000000000000000000000000000000000000000000000000000000081526004016103659291906105f5565b60405180910390fd5b5050565b600080fd5b6000819050919050565b61038a81610377565b811461039557600080fd5b50565b6000813590506103a781610381565b92915050565b600073ffffffffffffffffffffffffffffffffffffffff82169050919050565b60006103d8826103ad565b9050919050565b60006103ea826103cd565b9050919050565b6103fa816103df565b811461040557600080fd5b50565b600081359050610417816103f1565b92915050565b6000806040838503121561043457610433610372565b5b600061044285828601610398565b925050602061045385828601610408565b9150509250929050565b6000819050919050565b600061048261047d610478846103ad565b61045d565b6103ad565b9050919050565b600061049482610467565b9050919050565b60006104a682610489565b9050919050565b6104b68161049b565b82525050565b60006020820190506104d160008301846104ad565b92915050565b60006104e282610489565b9050919050565b6104f2816104d7565b82525050565b600060208201905061050d60008301846104e9565b92915050565b61051c816103cd565b811461052757600080fd5b50565b60008135905061053981610513565b92915050565b6000806040838503121561055657610555610372565b5b60006105648582860161052a565b925050602061057585828601610398565b9150509250929050565b610588816103cd565b82525050565b61059781610377565b82525050565b60006105a882610489565b9050919050565b6105b88161059d565b82525050565b60006060820190506105d3600083018661057f565b6105e0602083018561058e565b6105ed60408301846105af565b949350505050565b600060408201905061060a600083018561057f565b610617602083018461058e565b9392505050565b6000602082019050610633600083018461058e565b92915050565b60008151905061064881610513565b92915050565b60006020828403121561066457610663610372565b5b600061067284828501610639565b9150509291505056fea2646970667358221220c90dbfa0c27c6833e6ed98d1937d68c4ddcf4ef68d5d349eef2753821461b49064736f6c634300081c0033",
  "linkReferences": {},
  "deployedLinkReferences": {}
}