{
  "_format": "hh-sol-artifact-1",
  "contractName": "SCI",
  "sourceName": "contracts/SCI.sol",
  "abi": [
    {
      "inputs": [],
      "name": "InvalidInitialization",
      "type": "error"
    },
    {
      "inputs": [],
      "name": "NotInitializing",
      "type": "error"
    },
    {
      "inputs": [
        {
          "internalType": "address",
          "name": "owner",
          "type": "address"
        }
      ],
      "name": "OwnableInvalidOwner",
      "type": "error"
    },
    {
      "inputs": [
        {
          "internalType": "address",
          "name": "account",
          "type": "address"
        }
      ],
      "name": "OwnableUnauthorizedAccount",
      "type": "error"
    },
    {
      "anonymous": false,
      "inputs": [
        {
          "indexed": false,
          "internalType": "uint64",
          "name": "version",
          "type": "uint64"
        }
      ],
      "name": "Initialized",
      "type": "event"
    },
    {
      "anonymous": false,
      "inputs": [
        {
          "indexed": true,
          "internalType": "address",
          "name": "previousOwner",
          "type": "address"
        },
        {
          "indexed": true,
          "internalType": "address",
          "name": "newOwner",
          "type": "address"
        }
      ],
      "name": "OwnershipTransferStarted",
      "type": "event"
    },
    {
      "anonymous": false,
      "inputs": [
        {
          "indexed": true,
          "internalType": "address",
          "name": "previousOwner",
          "type": "address"
        },
        {
          "indexed": true,
          "internalType": "address",
          "name": "newOwner",
          "type": "address"
        }
      ],
      "name": "OwnershipTransferred",
      "type": "event"
    },
    {
      "anonymous": false,
      "inputs": [
        {
          "indexed": true,
          "internalType": "address",
          "name": "oldRegistryAddress",
          "type": "address"
        },
        {
          "indexed": true,
          "internalType": "address",
          "name": "newRegistryAddress",
          "type": "address"
        }
      ],
      "name": "RegistrySet",
      "type": "event"
    },
    {
      "inputs": [],
      "name": "acceptOwnership",
      "outputs": [],
      "stateMutability": "nonpayable",
      "type": "function"
    },
    {
      "inputs": [
        {
          "internalType": "bytes32",
          "name": "domainHash",
          "type": "bytes32"
        }
      ],
      "name": "domainHashToRecord",
      "outputs": [
        {
          "internalType": "address",
          "name": "owner",
          "type": "address"
        },
        {
          "internalType": "contract IVerifier",
          "name": "verifier",
          "type": "address"
        },
        {
          "internalType": "uint256",
          "name": "lastOwnerSetTime",
          "type": "uint256"
        },
        {
          "internalType": "uint256",
          "name": "lastVerifierSetTime",
          "type": "uint256"
        }
      ],
      "stateMutability": "view",
      "type": "function"
    },
    {
      "inputs": [
        {
          "internalType": "address",
          "name": "owner",
          "type": "address"
        },
        {
          "internalType": "address",
          "name": "registryAddress",
          "type": "address"
        }
      ],
      "name": "initialize",
      "outputs": [],
      "stateMutability": "nonpayable",
      "type": "function"
    },
    {
      "inputs": [
        {
          "internalType": "bytes32",
          "name": "domainHash",
          "type": "bytes32"
        },
        {
          "internalType": "address",
          "name": "contractAddress",
          "type": "address"
        },
        {
          "internalType": "uint256",
          "name": "chainId",
          "type": "uint256"
        }
      ],
      "name": "isVerifiedForDomainHash",
      "outputs": [
        {
          "internalType": "uint256",
          "name": "",
          "type": "uint256"
        }
      ],
      "stateMutability": "view",
      "type": "function"
    },
    {
      "inputs": [
        {
          "internalType": "bytes32[]",
          "name": "domainHashes",
          "type": "bytes32[]"
        },
        {
          "internalType": "address",
          "name": "contractAddress",
          "type": "address"
        },
        {
          "internalType": "uint256",
          "name": "chainId",
          "type": "uint256"
        }
      ],
      "name": "isVerifiedForMultipleDomainHashes",
      "outputs": [
        {
          "internalType": "uint256[]",
          "name": "",
          "type": "uint256[]"
        }
      ],
      "stateMutability": "view",
      "type": "function"
    },
    {
      "inputs": [],
      "name": "owner",
      "outputs": [
        {
          "internalType": "address",
          "name": "",
          "type": "address"
        }
      ],
      "stateMutability": "view",
      "type": "function"
    },
    {
      "inputs": [],
      "name": "pendingOwner",
      "outputs": [
        {
          "internalType": "address",
          "name": "",
          "type": "address"
        }
      ],
      "stateMutability": "view",
      "type": "function"
    },
    {
      "inputs": [],
      "name": "registry",
      "outputs": [
        {
          "internalType": "contract ISciRegistry",
          "name": "",
          "type": "address"
        }
      ],
      "stateMutability": "view",
      "type": "function"
    },
    {
      "inputs": [],
      "name": "renounceOwnership",
      "outputs": [],
      "stateMutability": "nonpayable",
      "type": "function"
    },
    {
      "inputs": [
        {
          "internalType": "address",
          "name": "newRegistry",
          "type": "address"
        }
      ],
      "name": "setRegistry",
      "outputs": [],
      "stateMutability": "nonpayable",
      "type": "function"
    },
    {
      "inputs": [
        {
          "internalType": "address",
          "name": "newOwner",
          "type": "address"
        }
      ],
      "name": "transferOwnership",
      "outputs": [],
      "stateMutability": "nonpayable",
      "type": "function"
    }
  ],
  "bytecode": "0x6080604052348015600f57600080fd5b5061142d8061001f6000396000f3fe608060405234801561001057600080fd5b50600436106100a95760003560e01c80637b103999116100715780637b103999146101415780638da5cb5b1461015f578063929d1ac11461017d578063a91ee0dc146101ad578063e30c3978146101c9578063f2fde38b146101e7576100a9565b80632019241b146100ae578063485cc955146100de5780635b377fa2146100fa578063715018a61461012d57806379ba509714610137575b600080fd5b6100c860048036038101906100c39190610d38565b610203565b6040516100d59190610d9a565b60405180910390f35b6100f860048036038101906100f39190610db5565b61036c565b005b610114600480360381019061010f9190610df5565b61050d565b6040516101249493929190610e90565b60405180910390f35b6101356105bc565b005b61013f6105d0565b005b61014961065f565b6040516101569190610ef6565b60405180910390f35b610167610683565b6040516101749190610f11565b60405180910390f35b61019760048036038101906101929190611085565b6106bb565b6040516101a491906111b2565b60405180910390f35b6101c760048036038101906101c291906111d4565b610778565b005b6101d1610844565b6040516101de9190610f11565b60405180910390f35b61020160048036038101906101fc91906111d4565b61087c565b005b60008060008054906101000a900473ffffffffffffffffffffffffffffffffffffffff1673ffffffffffffffffffffffffffffffffffffffff16635b377fa2866040518263ffffffff1660e01b815260040161025f9190611210565b608060405180830381865afa15801561027c573d6000803e3d6000fd5b505050506040513d601f19601f820116820180604052508101906102a09190611293565b5050915050600073ffffffffffffffffffffffffffffffffffffffff168173ffffffffffffffffffffffffffffffffffffffff16036102e3576000915050610365565b8073ffffffffffffffffffffffffffffffffffffffff1663046852d08686866040518463ffffffff1660e01b8152600401610320939291906112fa565b602060405180830381865afa15801561033d573d6000803e3d6000fd5b505050506040513d601f19601f820116820180604052508101906103619190611331565b9150505b9392505050565b6000610376610938565b905060008160000160089054906101000a900460ff1615905060008260000160009054906101000a900467ffffffffffffffff1690506000808267ffffffffffffffff161480156103c45750825b9050600060018367ffffffffffffffff161480156103f9575060003073ffffffffffffffffffffffffffffffffffffffff163b145b905081158015610407575080155b1561043e576040517ff92ee8a900000000000000000000000000000000000000000000000000000000815260040160405180910390fd5b60018560000160006101000a81548167ffffffffffffffff021916908367ffffffffffffffff160217905550831561048e5760018560000160086101000a81548160ff0219169083151502179055505b610496610960565b61049f8761096a565b6104a886610778565b83156105045760008560000160086101000a81548160ff0219169083151502179055507fc7f505b2f371ae2175ee4913f4499e1f2633a7b5936321eed1cdaeb6115181d260016040516104fb91906113ad565b60405180910390a15b50505050505050565b60008060008060008054906101000a900473ffffffffffffffffffffffffffffffffffffffff1673ffffffffffffffffffffffffffffffffffffffff16635b377fa2866040518263ffffffff1660e01b815260040161056c9190611210565b608060405180830381865afa158015610589573d6000803e3d6000fd5b505050506040513d601f19601f820116820180604052508101906105ad9190611293565b93509350935093509193509193565b6105c461097e565b6105ce6000610a05565b565b60006105da610a45565b90508073ffffffffffffffffffffffffffffffffffffffff166105fb610844565b73ffffffffffffffffffffffffffffffffffffffff161461065357806040517f118cdaa700000000000000000000000000000000000000000000000000000000815260040161064a9190610f11565b60405180910390fd5b61065c81610a05565b50565b60008054906101000a900473ffffffffffffffffffffffffffffffffffffffff1681565b60008061068e610a4d565b90508060000160009054906101000a900473ffffffffffffffffffffffffffffffffffffffff1691505090565b60606000845167ffffffffffffffff8111156106da576106d9610f42565b5b6040519080825280602002602001820160405280156107085781602001602082028036833780820191505090505b50905060008551905060005b8181101561076b57610741878281518110610732576107316113c8565b5b60200260200101518787610203565b838281518110610754576107536113c8565b5b602002602001018181525050806001019050610714565b5081925050509392505050565b61078061097e565b60008060009054906101000a900473ffffffffffffffffffffffffffffffffffffffff169050816000806101000a81548173ffffffffffffffffffffffffffffffffffffffff021916908373ffffffffffffffffffffffffffffffffffffffff1602179055508173ffffffffffffffffffffffffffffffffffffffff168173ffffffffffffffffffffffffffffffffffffffff167f363c56730e510c61b9b1c8da206585b5f5fa0eb1f76e05c2fcf82ee006fff9f560405160405180910390a35050565b60008061084f610a75565b90508060000160009054906101000a900473ffffffffffffffffffffffffffffffffffffffff1691505090565b61088461097e565b600061088e610a75565b9050818160000160006101000a81548173ffffffffffffffffffffffffffffffffffffffff021916908373ffffffffffffffffffffffffffffffffffffffff1602179055508173ffffffffffffffffffffffffffffffffffffffff166108f2610683565b73ffffffffffffffffffffffffffffffffffffffff167f38d16b8cac22d99fc7c124b9cd0de2d3fa1faef420bfe791d8c362d765e2270060405160405180910390a35050565b60007ff0c57e16840df040f15088dc2f81fe391c3923bec73e23a9662efc9c229c6a00905090565b610968610a9d565b565b610972610a9d565b61097b81610add565b50565b610986610a45565b73ffffffffffffffffffffffffffffffffffffffff166109a4610683565b73ffffffffffffffffffffffffffffffffffffffff1614610a03576109c7610a45565b6040517f118cdaa70000000000000000000000000000000000000000000000000000000081526004016109fa9190610f11565b60405180910390fd5b565b6000610a0f610a75565b90508060000160006101000a81549073ffffffffffffffffffffffffffffffffffffffff0219169055610a4182610b63565b5050565b600033905090565b60007f9016d09d72d40fdae2fd8ceac6b6234c7706214fd39c1cd1e609a0528c199300905090565b60007f237e158222e3e6968b72b9db0d8043aacf074ad9f650f0d1606b4d82ee432c00905090565b610aa5610c3a565b610adb576040517fd7e6bcf800000000000000000000000000000000000000000000000000000000815260040160405180910390fd5b565b610ae5610a9d565b600073ffffffffffffffffffffffffffffffffffffffff168173ffffffffffffffffffffffffffffffffffffffff1603610b575760006040517f1e4fbdf7000000000000000000000000000000000000000000000000000000008152600401610b4e9190610f11565b60405180910390fd5b610b6081610a05565b50565b6000610b6d610a4d565b905060008160000160009054906101000a900473ffffffffffffffffffffffffffffffffffffffff169050828260000160006101000a81548173ffffffffffffffffffffffffffffffffffffffff021916908373ffffffffffffffffffffffffffffffffffffffff1602179055508273ffffffffffffffffffffffffffffffffffffffff168173ffffffffffffffffffffffffffffffffffffffff167f8be0079c531659141344cd1fd0a4f28419497f9722a3daafe3b4186f6b6457e060405160405180910390a3505050565b6000610c44610938565b60000160089054906101000a900460ff16905090565b6000604051905090565b600080fd5b600080fd5b6000819050919050565b610c8181610c6e565b8114610c8c57600080fd5b50565b600081359050610c9e81610c78565b92915050565b600073ffffffffffffffffffffffffffffffffffffffff82169050919050565b6000610ccf82610ca4565b9050919050565b610cdf81610cc4565b8114610cea57600080fd5b50565b600081359050610cfc81610cd6565b92915050565b6000819050919050565b610d1581610d02565b8114610d2057600080fd5b50565b600081359050610d3281610d0c565b92915050565b600080600060608486031215610d5157610d50610c64565b5b6000610d5f86828701610c8f565b9350506020610d7086828701610ced565b9250506040610d8186828701610d23565b9150509250925092565b610d9481610d02565b82525050565b6000602082019050610daf6000830184610d8b565b92915050565b60008060408385031215610dcc57610dcb610c64565b5b6000610dda85828601610ced565b9250506020610deb85828601610ced565b9150509250929050565b600060208284031215610e0b57610e0a610c64565b5b6000610e1984828501610c8f565b91505092915050565b610e2b81610cc4565b82525050565b6000819050919050565b6000610e56610e51610e4c84610ca4565b610e31565b610ca4565b9050919050565b6000610e6882610e3b565b9050919050565b6000610e7a82610e5d565b9050919050565b610e8a81610e6f565b82525050565b6000608082019050610ea56000830187610e22565b610eb26020830186610e81565b610ebf6040830185610d8b565b610ecc6060830184610d8b565b95945050505050565b6000610ee082610e5d565b9050919050565b610ef081610ed5565b82525050565b6000602082019050610f0b6000830184610ee7565b92915050565b6000602082019050610f266000830184610e22565b92915050565b600080fd5b6000601f19601f8301169050919050565b7f4e487b7100000000000000000000000000000000000000000000000000000000600052604160045260246000fd5b610f7a82610f31565b810181811067ffffffffffffffff82111715610f9957610f98610f42565b5b80604052505050565b6000610fac610c5a565b9050610fb88282610f71565b919050565b600067ffffffffffffffff821115610fd857610fd7610f42565b5b602082029050602081019050919050565b600080fd5b6000611001610ffc84610fbd565b610fa2565b9050808382526020820190506020840283018581111561102457611023610fe9565b5b835b8181101561104d57806110398882610c8f565b845260208401935050602081019050611026565b5050509392505050565b600082601f83011261106c5761106b610f2c565b5b813561107c848260208601610fee565b91505092915050565b60008060006060848603121561109e5761109d610c64565b5b600084013567ffffffffffffffff8111156110bc576110bb610c69565b5b6110c886828701611057565b93505060206110d986828701610ced565b92505060406110ea86828701610d23565b9150509250925092565b600081519050919050565b600082825260208201905092915050565b6000819050602082019050919050565b61112981610d02565b82525050565b600061113b8383611120565b60208301905092915050565b6000602082019050919050565b600061115f826110f4565b61116981856110ff565b935061117483611110565b8060005b838110156111a557815161118c888261112f565b975061119783611147565b925050600181019050611178565b5085935050505092915050565b600060208201905081810360008301526111cc8184611154565b905092915050565b6000602082840312156111ea576111e9610c64565b5b60006111f884828501610ced565b91505092915050565b61120a81610c6e565b82525050565b60006020820190506112256000830184611201565b92915050565b60008151905061123a81610cd6565b92915050565b600061124b82610cc4565b9050919050565b61125b81611240565b811461126657600080fd5b50565b60008151905061127881611252565b92915050565b60008151905061128d81610d0c565b92915050565b600080600080608085870312156112ad576112ac610c64565b5b60006112bb8782880161122b565b94505060206112cc87828801611269565b93505060406112dd8782880161127e565b92505060606112ee8782880161127e565b91505092959194509250565b600060608201905061130f6000830186611201565b61131c6020830185610e22565b6113296040830184610d8b565b949350505050565b60006020828403121561134757611346610c64565b5b60006113558482850161127e565b91505092915050565b6000819050919050565b600067ffffffffffffffff82169050919050565b600061139761139261138d8461135e565b610e31565b611368565b9050919050565b6113a78161137c565b82525050565b60006020820190506113c2600083018461139e565b92915050565b7f4e487b7100000000000000000000000000000000000000000000000000000000600052603260045260246000fdfea2646970667358221220821405c484cd8f087bce149e0b629c117ae2f5f6ce02e02cc9ceab8cc5f1b3a064736f6c634300081c0033",
  "linkReferences": {},
  "deployedLinkReferences": {}
}