{
  "_format": "hh-sol-artifact-1",
  "contractName": "PublicListVerifier",
  "sourceName": "contracts/Verifiers/PublicListVerifier.sol",
  "abi": [
    {
      "inputs": [
        {
          "internalType": "address",
          "name": "_registry",
          "type": "address"
        }
      ],
      "stateMutability": "nonpayable",
      "type": "constructor"
    },
    {
      "inputs": [
        {
          "internalType": "address",
          "name": "account",
          "type": "address"
        },
        {
          "internalType": "bytes32",
          "name": "domainHash",
          "type": "bytes32"
        }
      ],
      "name": "AccountIsNotDomainOwner",
      "type": "error"
    },
    {
      "anonymous": false,
      "inputs": [
        {
          "indexed": true,
          "internalType": "bytes32",
          "name": "domainHash",
          "type": "bytes32"
        },
        {
          "indexed": true,
          "internalType": "uint256",
          "name": "chainId",
          "type": "uint256"
        },
        {
          "indexed": true,
          "internalType": "address",
          "name": "contractAddress",
          "type": "address"
        },
        {
          "indexed": false,
          "internalType": "address",
          "name": "msgSender",
          "type": "address"
        }
      ],
      "name": "AddressAdded",
      "type": "event"
    },
    {
      "anonymous": false,
      "inputs": [
        {
          "indexed": true,
          "internalType": "bytes32",
          "name": "domainHash",
          "type": "bytes32"
        },
        {
          "indexed": true,
          "internalType": "uint256",
          "name": "chainId",
          "type": "uint256"
        },
        {
          "indexed": true,
          "internalType": "address",
          "name": "contractAddress",
          "type": "address"
        },
        {
          "indexed": false,
          "internalType": "address",
          "name": "msgSender",
          "type": "address"
        }
      ],
      "name": "AddressRemoved",
      "type": "event"
    },
    {
      "inputs": [
        {
          "internalType": "bytes32",
          "name": "domainHash",
          "type": "bytes32"
        },
        {
          "internalType": "address[]",
          "name": "contractAddresses",
          "type": "address[]"
        },
        {
          "internalType": "uint256[][]",
          "name": "chainIds",
          "type": "uint256[][]"
        }
      ],
      "name": "addAddresses",
      "outputs": [],
      "stateMutability": "nonpayable",
      "type": "function"
    },
    {
      "inputs": [
        {
          "internalType": "bytes32",
          "name": "domainHash",
          "type": "bytes32"
        },
        {
          "internalType": "address",
          "name": "contractAddress",
          "type": "address"
        },
        {
          "internalType": "uint256",
          "name": "chainId",
          "type": "uint256"
        }
      ],
      "name": "isVerified",
      "outputs": [
        {
          "internalType": "uint256",
          "name": "",
          "type": "uint256"
        }
      ],
      "stateMutability": "view",
      "type": "function"
    },
    {
      "inputs": [],
      "name": "registry",
      "outputs": [
        {
          "internalType": "contract ISciRegistry",
          "name": "",
          "type": "address"
        }
      ],
      "stateMutability": "view",
      "type": "function"
    },
    {
      "inputs": [
        {
          "internalType": "bytes32",
          "name": "domainHash",
          "type": "bytes32"
        },
        {
          "internalType": "address[]",
          "name": "contractAddresses",
          "type": "address[]"
        },
        {
          "internalType": "uint256[][]",
          "name": "chainIds",
          "type": "uint256[][]"
        }
      ],
      "name": "removeAddresses",
      "outputs": [],
      "stateMutability": "nonpayable",
      "type": "function"
    },
    {
      "inputs": [
        {
          "internalType": "bytes32",
          "name": "domainHash",
          "type": "bytes32"
        },
        {
          "internalType": "address",
          "name": "contractAddress",
          "type": "address"
        },
        {
          "internalType": "uint256",
          "name": "chainId",
          "type": "uint256"
        }
      ],
      "name": "verifiedContracts",
      "outputs": [
        {
          "internalType": "uint256",
          "name": "registerTimestamp",
          "type": "uint256"
        }
      ],
      "stateMutability": "view",
      "type": "function"
    }
  ],
  "bytecode": "0x60a060405234801561001057600080fd5b50604051610e03380380610e03833981810160405281019061003291906100d1565b808073ffffffffffffffffffffffffffffffffffffffff1660808173ffffffffffffffffffffffffffffffffffffffff168152505050506100fe565b600080fd5b600073ffffffffffffffffffffffffffffffffffffffff82169050919050565b600061009e82610073565b9050919050565b6100ae81610093565b81146100b957600080fd5b50565b6000815190506100cb816100a5565b92915050565b6000602082840312156100e7576100e661006e565b5b60006100f5848285016100bc565b91505092915050565b608051610ce36101206000396000818161045301526106980152610ce36000f3fe608060405234801561001057600080fd5b50600436106100575760003560e01c8063046852d01461005c5780630f59a4981461008c57806379fb477a146100a85780637b103999146100d857806382ef31d9146100f6575b600080fd5b61007660048036038101906100719190610862565b610112565b60405161008391906108c4565b60405180910390f35b6100a660048036038101906100a1919061099a565b61022a565b005b6100c260048036038101906100bd9190610862565b61041f565b6040516100cf91906108c4565b60405180910390f35b6100e0610451565b6040516100ed9190610a8e565b60405180910390f35b610110600480360381019061010b919061099a565b610475565b005b60008060008086815260200190815260200160002060008573ffffffffffffffffffffffffffffffffffffffff1673ffffffffffffffffffffffffffffffffffffffff1681526020019081526020016000206000848152602001908152602001600020549050600081146101895780915050610223565b60008086815260200190815260200160002060008573ffffffffffffffffffffffffffffffffffffffff1673ffffffffffffffffffffffffffffffffffffffff16815260200190815260200160002060007fffffffffffffffffffffffffffffffffffffffffffffffffffffffffffffffff81526020019081526020016000205490506000811461021d5780915050610223565b60009150505b9392505050565b610232610677565b8561023d828261067f565b60005b868690508110156104155760005b85858381811061026157610260610aa9565b5b90506020028101906102739190610ae7565b905081101561040957426000808b815260200190815260200160002060008a8a868181106102a4576102a3610aa9565b5b90506020020160208101906102b99190610b4a565b73ffffffffffffffffffffffffffffffffffffffff1673ffffffffffffffffffffffffffffffffffffffff168152602001908152602001600020600088888681811061030857610307610aa9565b5b905060200281019061031a9190610ae7565b8581811061032b5761032a610aa9565b5b9050602002013581526020019081526020016000208190555087878381811061035757610356610aa9565b5b905060200201602081019061036c9190610b4a565b73ffffffffffffffffffffffffffffffffffffffff1686868481811061039557610394610aa9565b5b90506020028101906103a79190610ae7565b838181106103b8576103b7610aa9565b5b905060200201358a7fc177490b924686771eb8a2b77bee53e5913e624c90b60207d396f81cfe6e7cd06103e9610677565b6040516103f69190610b86565b60405180910390a480600101905061024e565b50806001019050610240565b5050505050505050565b600060205282600052604060002060205281600052604060002060205280600052604060002060009250925050505481565b7f000000000000000000000000000000000000000000000000000000000000000081565b61047d610677565b85610488828261067f565b60005b8686905081101561066d5760005b8585838181106104ac576104ab610aa9565b5b90506020028101906104be9190610ae7565b90508110156106615760008060008b815260200190815260200160002060008a8a868181106104f0576104ef610aa9565b5b90506020020160208101906105059190610b4a565b73ffffffffffffffffffffffffffffffffffffffff1673ffffffffffffffffffffffffffffffffffffffff168152602001908152602001600020600088888681811061055457610553610aa9565b5b90506020028101906105669190610ae7565b8581811061057757610576610aa9565b5b905060200201358152602001908152602001600020819055508787838181106105a3576105a2610aa9565b5b90506020020160208101906105b89190610b4a565b73ffffffffffffffffffffffffffffffffffffffff168686848181106105e1576105e0610aa9565b5b90506020028101906105f39190610ae7565b8381811061060457610603610aa9565b5b905060200201358a7f36be184145fbd476ffe0597f987f89d7490b926e334512a42de54749eee25e75610635610677565b6040516106429190610b86565b60405180910390a48060010190508061065a90610bd0565b9050610499565b5080600101905061048b565b5050505050505050565b600033905090565b8173ffffffffffffffffffffffffffffffffffffffff167f000000000000000000000000000000000000000000000000000000000000000073ffffffffffffffffffffffffffffffffffffffff1663d26cdd20836040518263ffffffff1660e01b81526004016106ef9190610c27565b602060405180830381865afa15801561070c573d6000803e3d6000fd5b505050506040513d601f19601f820116820180604052508101906107309190610c57565b73ffffffffffffffffffffffffffffffffffffffff161461078a5781816040517f2ebb0ef6000000000000000000000000000000000000000000000000000000008152600401610781929190610c84565b60405180910390fd5b5050565b600080fd5b600080fd5b6000819050919050565b6107ab81610798565b81146107b657600080fd5b50565b6000813590506107c8816107a2565b92915050565b600073ffffffffffffffffffffffffffffffffffffffff82169050919050565b60006107f9826107ce565b9050919050565b610809816107ee565b811461081457600080fd5b50565b60008135905061082681610800565b92915050565b6000819050919050565b61083f8161082c565b811461084a57600080fd5b50565b60008135905061085c81610836565b92915050565b60008060006060848603121561087b5761087a61078e565b5b6000610889868287016107b9565b935050602061089a86828701610817565b92505060406108ab8682870161084d565b9150509250925092565b6108be8161082c565b82525050565b60006020820190506108d960008301846108b5565b92915050565b600080fd5b600080fd5b600080fd5b60008083601f840112610904576109036108df565b5b8235905067ffffffffffffffff811115610921576109206108e4565b5b60208301915083602082028301111561093d5761093c6108e9565b5b9250929050565b60008083601f84011261095a576109596108df565b5b8235905067ffffffffffffffff811115610977576109766108e4565b5b602083019150836020820283011115610993576109926108e9565b5b9250929050565b6000806000806000606086880312156109b6576109b561078e565b5b60006109c4888289016107b9565b955050602086013567ffffffffffffffff8111156109e5576109e4610793565b5b6109f1888289016108ee565b9450945050604086013567ffffffffffffffff811115610a1457610a13610793565b5b610a2088828901610944565b92509250509295509295909350565b6000819050919050565b6000610a54610a4f610a4a846107ce565b610a2f565b6107ce565b9050919050565b6000610a6682610a39565b9050919050565b6000610a7882610a5b565b9050919050565b610a8881610a6d565b82525050565b6000602082019050610aa36000830184610a7f565b92915050565b7f4e487b7100000000000000000000000000000000000000000000000000000000600052603260045260246000fd5b600080fd5b600080fd5b600080fd5b60008083356001602003843603038112610b0457610b03610ad8565b5b80840192508235915067ffffffffffffffff821115610b2657610b25610add565b5b602083019250602082023603831315610b4257610b41610ae2565b5b509250929050565b600060208284031215610b6057610b5f61078e565b5b6000610b6e84828501610817565b91505092915050565b610b80816107ee565b82525050565b6000602082019050610b9b6000830184610b77565b92915050565b7f4e487b7100000000000000000000000000000000000000000000000000000000600052601160045260246000fd5b6000610bdb8261082c565b91507fffffffffffffffffffffffffffffffffffffffffffffffffffffffffffffffff8203610c0d57610c0c610ba1565b5b600182019050919050565b610c2181610798565b82525050565b6000602082019050610c3c6000830184610c18565b92915050565b600081519050610c5181610800565b92915050565b600060208284031215610c6d57610c6c61078e565b5b6000610c7b84828501610c42565b91505092915050565b6000604082019050610c996000830185610b77565b610ca66020830184610c18565b939250505056fea2646970667358221220e19e189f4f848086a4754a9206058bc9b93d6e078c6e1ebe9364c03045d6085764736f6c634300081c0033",
  "linkReferences": {},
  "deployedLinkReferences": {}
}