{
  "_format": "hh-sol-artifact-1",
  "contractName": "SciRegistry",
  "sourceName": "contracts/SciRegistry/SciRegistry.sol",
  "abi": [
    {
      "inputs": [
        {
          "internalType": "uint48",
          "name": "initialDelay",
          "type": "uint48"
        }
      ],
      "stateMutability": "nonpayable",
      "type": "constructor"
    },
    {
      "inputs": [],
      "name": "AccessControlBadConfirmation",
      "type": "error"
    },
    {
      "inputs": [
        {
          "internalType": "uint48",
          "name": "schedule",
          "type": "uint48"
        }
      ],
      "name": "AccessControlEnforcedDefaultAdminDelay",
      "type": "error"
    },
    {
      "inputs": [],
      "name": "AccessControlEnforcedDefaultAdminRules",
      "type": "error"
    },
    {
      "inputs": [
        {
          "internalType": "address",
          "name": "defaultAdmin",
          "type": "address"
        }
      ],
      "name": "AccessControlInvalidDefaultAdmin",
      "type": "error"
    },
    {
      "inputs": [
        {
          "internalType": "address",
          "name": "account",
          "type": "address"
        },
        {
          "internalType": "bytes32",
          "name": "neededRole",
          "type": "bytes32"
        }
      ],
      "name": "AccessControlUnauthorizedAccount",
      "type": "error"
    },
    {
      "inputs": [
        {
          "internalType": "address",
          "name": "account",
          "type": "address"
        },
        {
          "internalType": "bytes32",
          "name": "domainHash",
          "type": "bytes32"
        }
      ],
      "name": "AccountIsNotDomainOwner",
      "type": "error"
    },
    {
      "inputs": [],
      "name": "EnforcedPause",
      "type": "error"
    },
    {
      "inputs": [],
      "name": "ExpectedPause",
      "type": "error"
    },
    {
      "inputs": [
        {
          "internalType": "uint8",
          "name": "bits",
          "type": "uint8"
        },
        {
          "internalType": "uint256",
          "name": "value",
          "type": "uint256"
        }
      ],
      "name": "SafeCastOverflowedUintDowncast",
      "type": "error"
    },
    {
      "anonymous": false,
      "inputs": [],
      "name": "DefaultAdminDelayChangeCanceled",
      "type": "event"
    },
    {
      "anonymous": false,
      "inputs": [
        {
          "indexed": false,
          "internalType": "uint48",
          "name": "newDelay",
          "type": "uint48"
        },
        {
          "indexed": false,
          "internalType": "uint48",
          "name": "effectSchedule",
          "type": "uint48"
        }
      ],
      "name": "DefaultAdminDelayChangeScheduled",
      "type": "event"
    },
    {
      "anonymous": false,
      "inputs": [],
      "name": "DefaultAdminTransferCanceled",
      "type": "event"
    },
    {
      "anonymous": false,
      "inputs": [
        {
          "indexed": true,
          "internalType": "address",
          "name": "newAdmin",
          "type": "address"
        },
        {
          "indexed": false,
          "internalType": "uint48",
          "name": "acceptSchedule",
          "type": "uint48"
        }
      ],
      "name": "DefaultAdminTransferScheduled",
      "type": "event"
    },
    {
      "anonymous": false,
      "inputs": [
        {
          "indexed": true,
          "internalType": "address",
          "name": "registrar",
          "type": "address"
        },
        {
          "indexed": true,
          "internalType": "address",
          "name": "owner",
          "type": "address"
        },
        {
          "indexed": true,
          "internalType": "bytes32",
          "name": "domainHash",
          "type": "bytes32"
        }
      ],
      "name": "DomainRegistered",
      "type": "event"
    },
    {
      "anonymous": false,
      "inputs": [
        {
          "indexed": false,
          "internalType": "address",
          "name": "msgSender",
          "type": "address"
        },
        {
          "indexed": true,
          "internalType": "bytes32",
          "name": "domainHash",
          "type": "bytes32"
        },
        {
          "indexed": true,
          "internalType": "address",
          "name": "oldOwner",
          "type": "address"
        },
        {
          "indexed": true,
          "internalType": "address",
          "name": "newOwner",
          "type": "address"
        }
      ],
      "name": "OwnerSet",
      "type": "event"
    },
    {
      "anonymous": false,
      "inputs": [
        {
          "indexed": false,
          "internalType": "address",
          "name": "account",
          "type": "address"
        }
      ],
      "name": "Paused",
      "type": "event"
    },
    {
      "anonymous": false,
      "inputs": [
        {
          "indexed": true,
          "internalType": "bytes32",
          "name": "role",
          "type": "bytes32"
        },
        {
          "indexed": true,
          "internalType": "bytes32",
          "name": "previousAdminRole",
          "type": "bytes32"
        },
        {
          "indexed": true,
          "internalType": "bytes32",
          "name": "newAdminRole",
          "type": "bytes32"
        }
      ],
      "name": "RoleAdminChanged",
      "type": "event"
    },
    {
      "anonymous": false,
      "inputs": [
        {
          "indexed": true,
          "internalType": "bytes32",
          "name": "role",
          "type": "bytes32"
        },
        {
          "indexed": true,
          "internalType": "address",
          "name": "account",
          "type": "address"
        },
        {
          "indexed": true,
          "internalType": "address",
          "name": "sender",
          "type": "address"
        }
      ],
      "name": "RoleGranted",
      "type": "event"
    },
    {
      "anonymous": false,
      "inputs": [
        {
          "indexed": true,
          "internalType": "bytes32",
          "name": "role",
          "type": "bytes32"
        },
        {
          "indexed": true,
          "internalType": "address",
          "name": "account",
          "type": "address"
        },
        {
          "indexed": true,
          "internalType": "address",
          "name": "sender",
          "type": "address"
        }
      ],
      "name": "RoleRevoked",
      "type": "event"
    },
    {
      "anonymous": false,
      "inputs": [
        {
          "indexed": false,
          "internalType": "address",
          "name": "account",
          "type": "address"
        }
      ],
      "name": "Unpaused",
      "type": "event"
    },
    {
      "anonymous": false,
      "inputs": [
        {
          "indexed": false,
          "internalType": "address",
          "name": "msgSender",
          "type": "address"
        },
        {
          "indexed": true,
          "internalType": "bytes32",
          "name": "domainHash",
          "type": "bytes32"
        },
        {
          "indexed": true,
          "internalType": "contract IVerifier",
          "name": "oldVerifier",
          "type": "address"
        },
        {
          "indexed": true,
          "internalType": "contract IVerifier",
          "name": "newVerifie",
          "type": "address"
        }
      ],
      "name": "VerifierSet",
      "type": "event"
    },
    {
      "inputs": [],
      "name": "DEFAULT_ADMIN_ROLE",
      "outputs": [
        {
          "internalType": "bytes32",
          "name": "",
          "type": "bytes32"
        }
      ],
      "stateMutability": "view",
      "type": "function"
    },
    {
      "inputs": [],
      "name": "PAUSER_ROLE",
      "outputs": [
        {
          "internalType": "bytes32",
          "name": "",
          "type": "bytes32"
        }
      ],
      "stateMutability": "view",
      "type": "function"
    },
    {
      "inputs": [],
      "name": "REGISTRAR_MANAGER_ROLE",
      "outputs": [
        {
          "internalType": "bytes32",
          "name": "",
          "type": "bytes32"
        }
      ],
      "stateMutability": "view",
      "type": "function"
    },
    {
      "inputs": [],
      "name": "REGISTRAR_ROLE",
      "outputs": [
        {
          "internalType": "bytes32",
          "name": "",
          "type": "bytes32"
        }
      ],
      "stateMutability": "view",
      "type": "function"
    },
    {
      "inputs": [],
      "name": "acceptDefaultAdminTransfer",
      "outputs": [],
      "stateMutability": "nonpayable",
      "type": "function"
    },
    {
      "inputs": [
        {
          "internalType": "address",
          "name": "newAdmin",
          "type": "address"
        }
      ],
      "name": "beginDefaultAdminTransfer",
      "outputs": [],
      "stateMutability": "nonpayable",
      "type": "function"
    },
    {
      "inputs": [],
      "name": "cancelDefaultAdminTransfer",
      "outputs": [],
      "stateMutability": "nonpayable",
      "type": "function"
    },
    {
      "inputs": [
        {
          "internalType": "uint48",
          "name": "newDelay",
          "type": "uint48"
        }
      ],
      "name": "changeDefaultAdminDelay",
      "outputs": [],
      "stateMutability": "nonpayable",
      "type": "function"
    },
    {
      "inputs": [],
      "name": "defaultAdmin",
      "outputs": [
        {
          "internalType": "address",
          "name": "",
          "type": "address"
        }
      ],
      "stateMutability": "view",
      "type": "function"
    },
    {
      "inputs": [],
      "name": "defaultAdminDelay",
      "outputs": [
        {
          "internalType": "uint48",
          "name": "",
          "type": "uint48"
        }
      ],
      "stateMutability": "view",
      "type": "function"
    },
    {
      "inputs": [],
      "name": "defaultAdminDelayIncreaseWait",
      "outputs": [
        {
          "internalType": "uint48",
          "name": "",
          "type": "uint48"
        }
      ],
      "stateMutability": "view",
      "type": "function"
    },
    {
      "inputs": [
        {
          "internalType": "bytes32",
          "name": "nameHash",
          "type": "bytes32"
        }
      ],
      "name": "domainHashToRecord",
      "outputs": [
        {
          "internalType": "address",
          "name": "owner",
          "type": "address"
        },
        {
          "internalType": "contract IVerifier",
          "name": "verifier",
          "type": "address"
        },
        {
          "internalType": "uint256",
          "name": "ownerSetTime",
          "type": "uint256"
        },
        {
          "internalType": "uint256",
          "name": "verifierSetTime",
          "type": "uint256"
        }
      ],
      "stateMutability": "view",
      "type": "function"
    },
    {
      "inputs": [
        {
          "internalType": "bytes32",
          "name": "domainHash",
          "type": "bytes32"
        }
      ],
      "name": "domainOwner",
      "outputs": [
        {
          "internalType": "address",
          "name": "",
          "type": "address"
        }
      ],
      "stateMutability": "view",
      "type": "function"
    },
    {
      "inputs": [
        {
          "internalType": "bytes32",
          "name": "domainHash",
          "type": "bytes32"
        }
      ],
      "name": "domainVerifier",
      "outputs": [
        {
          "internalType": "contract IVerifier",
          "name": "",
          "type": "address"
        }
      ],
      "stateMutability": "view",
      "type": "function"
    },
    {
      "inputs": [
        {
          "internalType": "bytes32",
          "name": "domainHash",
          "type": "bytes32"
        }
      ],
      "name": "domainVerifierSetTime",
      "outputs": [
        {
          "internalType": "uint256",
          "name": "",
          "type": "uint256"
        }
      ],
      "stateMutability": "view",
      "type": "function"
    },
    {
      "inputs": [
        {
          "internalType": "bytes32",
          "name": "role",
          "type": "bytes32"
        }
      ],
      "name": "getRoleAdmin",
      "outputs": [
        {
          "internalType": "bytes32",
          "name": "",
          "type": "bytes32"
        }
      ],
      "stateMutability": "view",
      "type": "function"
    },
    {
      "inputs": [
        {
          "internalType": "bytes32",
          "name": "role",
          "type": "bytes32"
        },
        {
          "internalType": "address",
          "name": "account",
          "type": "address"
        }
      ],
      "name": "grantRole",
      "outputs": [],
      "stateMutability": "nonpayable",
      "type": "function"
    },
    {
      "inputs": [
        {
          "internalType": "bytes32",
          "name": "role",
          "type": "bytes32"
        },
        {
          "internalType": "address",
          "name": "account",
          "type": "address"
        }
      ],
      "name": "hasRole",
      "outputs": [
        {
          "internalType": "bool",
          "name": "",
          "type": "bool"
        }
      ],
      "stateMutability": "view",
      "type": "function"
    },
    {
      "inputs": [
        {
          "internalType": "bytes32",
          "name": "domainHash",
          "type": "bytes32"
        },
        {
          "internalType": "address",
          "name": "account",
          "type": "address"
        }
      ],
      "name": "isDomainOwner",
      "outputs": [
        {
          "internalType": "bool",
          "name": "",
          "type": "bool"
        }
      ],
      "stateMutability": "view",
      "type": "function"
    },
    {
      "inputs": [],
      "name": "owner",
      "outputs": [
        {
          "internalType": "address",
          "name": "",
          "type": "address"
        }
      ],
      "stateMutability": "view",
      "type": "function"
    },
    {
      "inputs": [],
      "name": "pause",
      "outputs": [],
      "stateMutability": "nonpayable",
      "type": "function"
    },
    {
      "inputs": [],
      "name": "paused",
      "outputs": [
        {
          "internalType": "bool",
          "name": "",
          "type": "bool"
        }
      ],
      "stateMutability": "view",
      "type": "function"
    },
    {
      "inputs": [],
      "name": "pendingDefaultAdmin",
      "outputs": [
        {
          "internalType": "address",
          "name": "newAdmin",
          "type": "address"
        },
        {
          "internalType": "uint48",
          "name": "schedule",
          "type": "uint48"
        }
      ],
      "stateMutability": "view",
      "type": "function"
    },
    {
      "inputs": [],
      "name": "pendingDefaultAdminDelay",
      "outputs": [
        {
          "internalType": "uint48",
          "name": "newDelay",
          "type": "uint48"
        },
        {
          "internalType": "uint48",
          "name": "schedule",
          "type": "uint48"
        }
      ],
      "stateMutability": "view",
      "type": "function"
    },
    {
      "inputs": [
        {
          "internalType": "address",
          "name": "owner",
          "type": "address"
        },
        {
          "internalType": "bytes32",
          "name": "domainHash",
          "type": "bytes32"
        }
      ],
      "name": "registerDomain",
      "outputs": [],
      "stateMutability": "nonpayable",
      "type": "function"
    },
    {
      "inputs": [
        {
          "internalType": "address",
          "name": "owner",
          "type": "address"
        },
        {
          "internalType": "bytes32",
          "name": "domainHash",
          "type": "bytes32"
        },
        {
          "internalType": "contract IVerifier",
          "name": "verifier",
          "type": "address"
        }
      ],
      "name": "registerDomainWithVerifier",
      "outputs": [],
      "stateMutability": "nonpayable",
      "type": "function"
    },
    {
      "inputs": [],
      "name": "registry",
      "outputs": [
        {
          "internalType": "contract ISciRegistry",
          "name": "",
          "type": "address"
        }
      ],
      "stateMutability": "view",
      "type": "function"
    },
    {
      "inputs": [
        {
          "internalType": "bytes32",
          "name": "role",
          "type": "bytes32"
        },
        {
          "internalType": "address",
          "name": "account",
          "type": "address"
        }
      ],
      "name": "renounceRole",
      "outputs": [],
      "stateMutability": "nonpayable",
      "type": "function"
    },
    {
      "inputs": [
        {
          "internalType": "bytes32",
          "name": "role",
          "type": "bytes32"
        },
        {
          "internalType": "address",
          "name": "account",
          "type": "address"
        }
      ],
      "name": "revokeRole",
      "outputs": [],
      "stateMutability": "nonpayable",
      "type": "function"
    },
    {
      "inputs": [],
      "name": "rollbackDefaultAdminDelay",
      "outputs": [],
      "stateMutability": "nonpayable",
      "type": "function"
    },
    {
      "inputs": [
        {
          "internalType": "bytes32",
          "name": "domainHash",
          "type": "bytes32"
        },
        {
          "internalType": "contract IVerifier",
          "name": "verifier",
          "type": "address"
        }
      ],
      "name": "setVerifier",
      "outputs": [],
      "stateMutability": "nonpayable",
      "type": "function"
    },
    {
      "inputs": [
        {
          "internalType": "bytes4",
          "name": "interfaceId",
          "type": "bytes4"
        }
      ],
      "name": "supportsInterface",
      "outputs": [
        {
          "internalType": "bool",
          "name": "",
          "type": "bool"
        }
      ],
      "stateMutability": "view",
      "type": "function"
    },
    {
      "inputs": [],
      "name": "unpause",
      "outputs": [],
      "stateMutability": "nonpayable",
      "type": "function"
    }
  ],
  "bytecode": "0x60a060405234801561001057600080fd5b506040516129513803806129518339818101604052810190610032919061051a565b308161004261019560201b60201c565b600073ffffffffffffffffffffffffffffffffffffffff168173ffffffffffffffffffffffffffffffffffffffff16036100b45760006040517fc22c80220000000000000000000000000000000000000000000000000000000081526004016100ab9190610588565b60405180910390fd5b816001601a6101000a81548165ffffffffffff021916908365ffffffffffff1602179055506100ec6000801b8261019d60201b60201c565b5050508073ffffffffffffffffffffffffffffffffffffffff1660808173ffffffffffffffffffffffffffffffffffffffff1681525050506000600360006101000a81548160ff02191690831515021790555061018f7fedcc084d3dcd65a1f7f23c65c46722faca6953d28e43150a467cf43e5c3092387f3ae1c506296743d7e3d03c7c7fbc7159c94706bb478d44fe35e75190455a750961027660201b60201c565b506105a3565b600033905090565b60008060001b830361025e57600073ffffffffffffffffffffffffffffffffffffffff166101cf6102c660201b60201c565b73ffffffffffffffffffffffffffffffffffffffff161461021c576040517f3fc3c27a00000000000000000000000000000000000000000000000000000000815260040160405180910390fd5b81600260006101000a81548173ffffffffffffffffffffffffffffffffffffffff021916908373ffffffffffffffffffffffffffffffffffffffff1602179055505b61026e83836102f060201b60201c565b905092915050565b6000801b82036102b2576040517f3fc3c27a00000000000000000000000000000000000000000000000000000000815260040160405180910390fd5b6102c282826103ed60201b60201c565b5050565b6000600260009054906101000a900473ffffffffffffffffffffffffffffffffffffffff16905090565b6000610302838361044e60201b60201c565b6103e257600160008085815260200190815260200160002060000160008473ffffffffffffffffffffffffffffffffffffffff1673ffffffffffffffffffffffffffffffffffffffff16815260200190815260200160002060006101000a81548160ff02191690831515021790555061037f61019560201b60201c565b73ffffffffffffffffffffffffffffffffffffffff168273ffffffffffffffffffffffffffffffffffffffff16847f2f8788117e7eff1d82e926ec794901d17c78024a50270940304540a733656f0d60405160405180910390a4600190506103e7565b600090505b92915050565b60006103fe836104b860201b60201c565b905081600080858152602001908152602001600020600101819055508181847fbd79b86ffe0ab8e8776151514217cd7cacd52c909f66475c3af44e129f0b00ff60405160405180910390a4505050565b600080600084815260200190815260200160002060000160008373ffffffffffffffffffffffffffffffffffffffff1673ffffffffffffffffffffffffffffffffffffffff16815260200190815260200160002060009054906101000a900460ff16905092915050565b6000806000838152602001908152602001600020600101549050919050565b600080fd5b600065ffffffffffff82169050919050565b6104f7816104dc565b811461050257600080fd5b50565b600081519050610514816104ee565b92915050565b6000602082840312156105305761052f6104d7565b5b600061053e84828501610505565b91505092915050565b600073ffffffffffffffffffffffffffffffffffffffff82169050919050565b600061057282610547565b9050919050565b61058281610567565b82525050565b600060208201905061059d6000830184610579565b92915050565b60805161238c6105c560003960008181610924015261115a015261238c6000f3fe608060405234801561001057600080fd5b50600436106101fb5760003560e01c80638da5cb5b1161011a578063cc8463c8116100ad578063d547741f1161007c578063d547741f14610581578063d602b9fd1461059d578063dd738e6c146105a7578063e63ab1e9146105c3578063f68e9553146105e1576101fb565b8063cc8463c81461050a578063cefc142914610528578063cf6eefb714610532578063d26cdd2014610551576101fb565b8063a2a6c0eb116100e9578063a2a6c0eb14610484578063a692b9ef146104b4578063a8c00861146104d0578063be8cd266146104ec576101fb565b80638da5cb5b146103f957806391d1485414610417578063a1eda53c14610447578063a217fddf14610466576101fb565b80635b377fa2116101925780637b103999116101615780637b103999146103835780638023597e146103a15780638456cb59146103d157806384ef8ffc146103db576101fb565b80635b377fa2146102fa5780635c975abb1461032d578063634e93da1461034b578063649a5ec714610367576101fb565b80632f2ff15d116101ce5780632f2ff15d1461028857806336568abe146102a45780633f4ba83a146102c05780635a75199a146102ca576101fb565b806301ffc9a714610200578063022d63fb146102305780630aa6220b1461024e578063248a9ca314610258575b600080fd5b61021a60048036038101906102159190611ccb565b6105ff565b6040516102279190611d13565b60405180910390f35b610238610679565b6040516102459190611d4f565b60405180910390f35b610256610684565b005b610272600480360381019061026d9190611da0565b61069c565b60405161027f9190611ddc565b60405180910390f35b6102a2600480360381019061029d9190611e55565b6106bb565b005b6102be60048036038101906102b99190611e55565b6106dd565b005b6102c86107f2565b005b6102e460048036038101906102df9190611da0565b610827565b6040516102f19190611ef4565b60405180910390f35b610314600480360381019061030f9190611da0565b610867565b6040516103249493929190611f37565b60405180910390f35b6103356108d7565b6040516103429190611d13565b60405180910390f35b61036560048036038101906103609190611f7c565b6108ee565b005b610381600480360381019061037c9190611fd5565b610908565b005b61038b610922565b6040516103989190612023565b60405180910390f35b6103bb60048036038101906103b69190611e55565b610946565b6040516103c89190611d13565b60405180910390f35b6103d9610987565b005b6103e36109bc565b6040516103f0919061203e565b60405180910390f35b6104016109e6565b60405161040e919061203e565b60405180910390f35b610431600480360381019061042c9190611e55565b6109f5565b60405161043e9190611d13565b60405180910390f35b61044f610a5f565b60405161045d929190612059565b60405180910390f35b61046e610abf565b60405161047b9190611ddc565b60405180910390f35b61049e60048036038101906104999190611da0565b610ac6565b6040516104ab9190612082565b60405180910390f35b6104ce60048036038101906104c991906120db565b610ae6565b005b6104ea60048036038101906104e5919061211b565b610b09565b005b6104f4610b17565b6040516105019190611ddc565b60405180910390f35b610512610b3b565b60405161051f9190611d4f565b60405180910390f35b610530610ba9565b005b61053a610c3f565b60405161054892919061215b565b60405180910390f35b61056b60048036038101906105669190611da0565b610c82565b604051610578919061203e565b60405180910390f35b61059b60048036038101906105969190611e55565b610cc2565b005b6105a5610d0c565b005b6105c160048036038101906105bc9190612184565b610d24565b005b6105cb610d3d565b6040516105d89190611ddc565b60405180910390f35b6105e9610d61565b6040516105f69190611ddc565b60405180910390f35b60007f31498786000000000000000000000000000000000000000000000000000000007bffffffffffffffffffffffffffffffffffffffffffffffffffffffff1916827bffffffffffffffffffffffffffffffffffffffffffffffffffffffff19161480610672575061067182610d85565b5b9050919050565b600062069780905090565b6000801b61069181610dff565b610699610e13565b50565b6000806000838152602001908152602001600020600101549050919050565b6106c48261069c565b6106cd81610dff565b6106d78383610e20565b50505050565b6000801b8214801561072157506106f26109bc565b73ffffffffffffffffffffffffffffffffffffffff168173ffffffffffffffffffffffffffffffffffffffff16145b156107e457600080610731610c3f565b91509150600073ffffffffffffffffffffffffffffffffffffffff168273ffffffffffffffffffffffffffffffffffffffff16141580610777575061077581610eed565b155b80610788575061078681610f02565b155b156107ca57806040517f19ca5ebb0000000000000000000000000000000000000000000000000000000081526004016107c19190611d4f565b60405180910390fd5b600160146101000a81549065ffffffffffff021916905550505b6107ee8282610f16565b5050565b7f65d7a28e3265b37a6474929f336521b332c1681b933f6cb9f3376673440d862a61081c81610dff565b610824610f91565b50565b60006004600083815260200190815260200160002060010160009054906101000a900473ffffffffffffffffffffffffffffffffffffffff169050919050565b60046020528060005260406000206000915090508060000160009054906101000a900473ffffffffffffffffffffffffffffffffffffffff16908060010160009054906101000a900473ffffffffffffffffffffffffffffffffffffffff16908060020154908060030154905084565b6000600360009054906101000a900460ff16905090565b6000801b6108fb81610dff565b61090482610ff4565b5050565b6000801b61091581610dff565b61091e8261106f565b5050565b7f000000000000000000000000000000000000000000000000000000000000000081565b60008173ffffffffffffffffffffffffffffffffffffffff1661096884610c82565b73ffffffffffffffffffffffffffffffffffffffff1614905092915050565b7f65d7a28e3265b37a6474929f336521b332c1681b933f6cb9f3376673440d862a6109b181610dff565b6109b96110d6565b50565b6000600260009054906101000a900473ffffffffffffffffffffffffffffffffffffffff16905090565b60006109f06109bc565b905090565b600080600084815260200190815260200160002060000160008373ffffffffffffffffffffffffffffffffffffffff1673ffffffffffffffffffffffffffffffffffffffff16815260200190815260200160002060009054906101000a900460ff16905092915050565b6000806002601a9054906101000a900465ffffffffffff169050610a8281610eed565b8015610a945750610a9281610f02565b155b610aa057600080610ab7565b600260149054906101000a900465ffffffffffff16815b915091509091565b6000801b81565b600060046000838152602001908152602001600020600301549050919050565b610aee611139565b82610af98282611141565b610b038484611250565b50505050565b610b138282611375565b5050565b7f3ae1c506296743d7e3d03c7c7fbc7159c94706bb478d44fe35e75190455a750981565b6000806002601a9054906101000a900465ffffffffffff169050610b5e81610eed565b8015610b6f5750610b6e81610f02565b5b610b8d576001601a9054906101000a900465ffffffffffff16610ba3565b600260149054906101000a900465ffffffffffff165b91505090565b6000610bb3610c3f565b5090508073ffffffffffffffffffffffffffffffffffffffff16610bd5611139565b73ffffffffffffffffffffffffffffffffffffffff1614610c3457610bf8611139565b6040517fc22c8022000000000000000000000000000000000000000000000000000000008152600401610c2b919061203e565b60405180910390fd5b610c3c611418565b50565b600080600160009054906101000a900473ffffffffffffffffffffffffffffffffffffffff16600160149054906101000a900465ffffffffffff16915091509091565b60006004600083815260200190815260200160002060000160009054906101000a900473ffffffffffffffffffffffffffffffffffffffff169050919050565b6000801b8203610cfe576040517f3fc3c27a00000000000000000000000000000000000000000000000000000000815260040160405180910390fd5b610d0882826114e7565b5050565b6000801b610d1981610dff565b610d21611509565b50565b610d2e8383611375565b610d388282611250565b505050565b7f65d7a28e3265b37a6474929f336521b332c1681b933f6cb9f3376673440d862a81565b7fedcc084d3dcd65a1f7f23c65c46722faca6953d28e43150a467cf43e5c30923881565b60007f7965db0b000000000000000000000000000000000000000000000000000000007bffffffffffffffffffffffffffffffffffffffffffffffffffffffff1916827bffffffffffffffffffffffffffffffffffffffffffffffffffffffff19161480610df85750610df782611516565b5b9050919050565b610e1081610e0b611139565b611580565b50565b610e1e6000806115d1565b565b60008060001b8303610edb57600073ffffffffffffffffffffffffffffffffffffffff16610e4c6109bc565b73ffffffffffffffffffffffffffffffffffffffff1614610e99576040517f3fc3c27a00000000000000000000000000000000000000000000000000000000815260040160405180910390fd5b81600260006101000a81548173ffffffffffffffffffffffffffffffffffffffff021916908373ffffffffffffffffffffffffffffffffffffffff1602179055505b610ee583836116c1565b905092915050565b6000808265ffffffffffff1614159050919050565b6000428265ffffffffffff16109050919050565b610f1e611139565b73ffffffffffffffffffffffffffffffffffffffff168173ffffffffffffffffffffffffffffffffffffffff1614610f82576040517f6697b23200000000000000000000000000000000000000000000000000000000815260040160405180910390fd5b610f8c82826117b2565b505050565b610f99611835565b6000600360006101000a81548160ff0219169083151502179055507f5db9ee0a495bf2e6ff9c91a7834c1ba4fdd244a5e8aa4e537bd38aeae4b073aa610fdd611139565b604051610fea919061203e565b60405180910390a1565b6000610ffe610b3b565b61100742611875565b6110119190612206565b905061101d82826118cf565b8173ffffffffffffffffffffffffffffffffffffffff167f3377dc44241e779dd06afab5b788a35ca5f3b778836e2990bdb26a2a4b2e5ed6826040516110639190611d4f565b60405180910390a25050565b600061107a82611982565b61108342611875565b61108d9190612206565b905061109982826115d1565b7ff1038c18cf84a56e432fdbfaf746924b7ea511dfe03a6506a0ceba4888788d9b82826040516110ca929190612059565b60405180910390a15050565b6110de6119e1565b6001600360006101000a81548160ff0219169083151502179055507f62e78cea01bee320cd4e420270b5ea74000d11b0c9f74754ebdbfc544b05a258611122611139565b60405161112f919061203e565b60405180910390a1565b600033905090565b8173ffffffffffffffffffffffffffffffffffffffff167f000000000000000000000000000000000000000000000000000000000000000073ffffffffffffffffffffffffffffffffffffffff1663d26cdd20836040518263ffffffff1660e01b81526004016111b19190611ddc565b602060405180830381865afa1580156111ce573d6000803e3d6000fd5b505050506040513d601f19601f820116820180604052508101906111f29190612255565b73ffffffffffffffffffffffffffffffffffffffff161461124c5781816040517f2ebb0ef6000000000000000000000000000000000000000000000000000000008152600401611243929190612282565b60405180910390fd5b5050565b6112586119e1565b60006004600084815260200190815260200160002060010160009054906101000a900473ffffffffffffffffffffffffffffffffffffffff169050816004600085815260200190815260200160002060010160006101000a81548173ffffffffffffffffffffffffffffffffffffffff021916908373ffffffffffffffffffffffffffffffffffffffff1602179055504260046000858152602001908152602001600020600301819055508173ffffffffffffffffffffffffffffffffffffffff168173ffffffffffffffffffffffffffffffffffffffff16847fc485a79936c258fd12fef44dd3de8d3069f7a6386c10e58329849408c91bbcd261135b611139565b604051611368919061203e565b60405180910390a4505050565b7fedcc084d3dcd65a1f7f23c65c46722faca6953d28e43150a467cf43e5c30923861139f81610dff565b6113a76119e1565b6113b18284611a22565b818373ffffffffffffffffffffffffffffffffffffffff166113d1611139565b73ffffffffffffffffffffffffffffffffffffffff167ffb904ac70ccbe99b850406bf60ada29496703558524d72bcb9e54b76d1040a6360405160405180910390a4505050565b600080611423610c3f565b9150915061143081610eed565b1580611442575061144081610f02565b155b1561148457806040517f19ca5ebb00000000000000000000000000000000000000000000000000000000815260040161147b9190611d4f565b60405180910390fd5b6114986000801b6114936109bc565b6117b2565b506114a66000801b83610e20565b50600160006101000a81549073ffffffffffffffffffffffffffffffffffffffff0219169055600160146101000a81549065ffffffffffff02191690555050565b6114f08261069c565b6114f981610dff565b61150383836117b2565b50505050565b6115146000806118cf565b565b60007f01ffc9a7000000000000000000000000000000000000000000000000000000007bffffffffffffffffffffffffffffffffffffffffffffffffffffffff1916827bffffffffffffffffffffffffffffffffffffffffffffffffffffffff1916149050919050565b61158a82826109f5565b6115cd5780826040517fe2517d3f0000000000000000000000000000000000000000000000000000000081526004016115c4929190612282565b60405180910390fd5b5050565b60006002601a9054906101000a900465ffffffffffff1690506115f381610eed565b156116725761160181610f02565b1561164457600260149054906101000a900465ffffffffffff166001601a6101000a81548165ffffffffffff021916908365ffffffffffff160217905550611671565b7f2b1fa2edafe6f7b9e97c1a9e0c3660e645beb2dcaa2d45bdbf9beaf5472e1ec560405160405180910390a15b5b82600260146101000a81548165ffffffffffff021916908365ffffffffffff160217905550816002601a6101000a81548165ffffffffffff021916908365ffffffffffff160217905550505050565b60006116cd83836109f5565b6117a757600160008085815260200190815260200160002060000160008473ffffffffffffffffffffffffffffffffffffffff1673ffffffffffffffffffffffffffffffffffffffff16815260200190815260200160002060006101000a81548160ff021916908315150217905550611744611139565b73ffffffffffffffffffffffffffffffffffffffff168273ffffffffffffffffffffffffffffffffffffffff16847f2f8788117e7eff1d82e926ec794901d17c78024a50270940304540a733656f0d60405160405180910390a4600190506117ac565b600090505b92915050565b60008060001b831480156117f857506117c96109bc565b73ffffffffffffffffffffffffffffffffffffffff168273ffffffffffffffffffffffffffffffffffffffff16145b1561182357600260006101000a81549073ffffffffffffffffffffffffffffffffffffffff02191690555b61182d8383611b3f565b905092915050565b61183d6108d7565b611873576040517f8dfc202b00000000000000000000000000000000000000000000000000000000815260040160405180910390fd5b565b600065ffffffffffff80168211156118c7576030826040517f6dfcc6500000000000000000000000000000000000000000000000000000000081526004016118be9291906122f3565b60405180910390fd5b819050919050565b60006118d9610c3f565b91505082600160006101000a81548173ffffffffffffffffffffffffffffffffffffffff021916908373ffffffffffffffffffffffffffffffffffffffff16021790555081600160146101000a81548165ffffffffffff021916908365ffffffffffff16021790555061194b81610eed565b1561197d577f8886ebfc4259abdbc16601dd8fb5678e54878f47b3c34836cfc51154a960510960405160405180910390a15b505050565b60008061198d610b3b565b90508065ffffffffffff168365ffffffffffff16116119b75782816119b2919061231c565b6119d9565b6119d88365ffffffffffff166119cb610679565b65ffffffffffff16611c31565b5b915050919050565b6119e96108d7565b15611a20576040517fd93c066500000000000000000000000000000000000000000000000000000000815260040160405180910390fd5b565b60006004600084815260200190815260200160002060000160009054906101000a900473ffffffffffffffffffffffffffffffffffffffff169050816004600085815260200190815260200160002060000160006101000a81548173ffffffffffffffffffffffffffffffffffffffff021916908373ffffffffffffffffffffffffffffffffffffffff1602179055504260046000858152602001908152602001600020600201819055508173ffffffffffffffffffffffffffffffffffffffff168173ffffffffffffffffffffffffffffffffffffffff16847fc4556710b10078aae76dbdf4ad5ea256f74909069bd8af417c5c2aeac18eb288611b25611139565b604051611b32919061203e565b60405180910390a4505050565b6000611b4b83836109f5565b15611c2657600080600085815260200190815260200160002060000160008473ffffffffffffffffffffffffffffffffffffffff1673ffffffffffffffffffffffffffffffffffffffff16815260200190815260200160002060006101000a81548160ff021916908315150217905550611bc3611139565b73ffffffffffffffffffffffffffffffffffffffff168273ffffffffffffffffffffffffffffffffffffffff16847ff6391f5c32d9c69d2a47ea670b442974b53935d1edc7fd64eb21e047a839171b60405160405180910390a460019050611c2b565b600090505b92915050565b6000611c408284108484611c48565b905092915050565b6000611c5384611c62565b82841802821890509392505050565b60008115159050919050565b600080fd5b60007fffffffff0000000000000000000000000000000000000000000000000000000082169050919050565b611ca881611c73565b8114611cb357600080fd5b50565b600081359050611cc581611c9f565b92915050565b600060208284031215611ce157611ce0611c6e565b5b6000611cef84828501611cb6565b91505092915050565b60008115159050919050565b611d0d81611cf8565b82525050565b6000602082019050611d286000830184611d04565b92915050565b600065ffffffffffff82169050919050565b611d4981611d2e565b82525050565b6000602082019050611d646000830184611d40565b92915050565b6000819050919050565b611d7d81611d6a565b8114611d8857600080fd5b50565b600081359050611d9a81611d74565b92915050565b600060208284031215611db657611db5611c6e565b5b6000611dc484828501611d8b565b91505092915050565b611dd681611d6a565b82525050565b6000602082019050611df16000830184611dcd565b92915050565b600073ffffffffffffffffffffffffffffffffffffffff82169050919050565b6000611e2282611df7565b9050919050565b611e3281611e17565b8114611e3d57600080fd5b50565b600081359050611e4f81611e29565b92915050565b60008060408385031215611e6c57611e6b611c6e565b5b6000611e7a85828601611d8b565b9250506020611e8b85828601611e40565b9150509250929050565b6000819050919050565b6000611eba611eb5611eb084611df7565b611e95565b611df7565b9050919050565b6000611ecc82611e9f565b9050919050565b6000611ede82611ec1565b9050919050565b611eee81611ed3565b82525050565b6000602082019050611f096000830184611ee5565b92915050565b611f1881611e17565b82525050565b6000819050919050565b611f3181611f1e565b82525050565b6000608082019050611f4c6000830187611f0f565b611f596020830186611ee5565b611f666040830185611f28565b611f736060830184611f28565b95945050505050565b600060208284031215611f9257611f91611c6e565b5b6000611fa084828501611e40565b91505092915050565b611fb281611d2e565b8114611fbd57600080fd5b50565b600081359050611fcf81611fa9565b92915050565b600060208284031215611feb57611fea611c6e565b5b6000611ff984828501611fc0565b91505092915050565b600061200d82611ec1565b9050919050565b61201d81612002565b82525050565b60006020820190506120386000830184612014565b92915050565b60006020820190506120536000830184611f0f565b92915050565b600060408201905061206e6000830185611d40565b61207b6020830184611d40565b9392505050565b60006020820190506120976000830184611f28565b92915050565b60006120a882611e17565b9050919050565b6120b88161209d565b81146120c357600080fd5b50565b6000813590506120d5816120af565b92915050565b600080604083850312156120f2576120f1611c6e565b5b600061210085828601611d8b565b9250506020612111858286016120c6565b9150509250929050565b6000806040838503121561213257612131611c6e565b5b600061214085828601611e40565b925050602061215185828601611d8b565b9150509250929050565b60006040820190506121706000830185611f0f565b61217d6020830184611d40565b9392505050565b60008060006060848603121561219d5761219c611c6e565b5b60006121ab86828701611e40565b93505060206121bc86828701611d8b565b92505060406121cd868287016120c6565b9150509250925092565b7f4e487b7100000000000000000000000000000000000000000000000000000000600052601160045260246000fd5b600061221182611d2e565b915061221c83611d2e565b9250828201905065ffffffffffff81111561223a576122396121d7565b5b92915050565b60008151905061224f81611e29565b92915050565b60006020828403121561226b5761226a611c6e565b5b600061227984828501612240565b91505092915050565b60006040820190506122976000830185611f0f565b6122a46020830184611dcd565b9392505050565b6000819050919050565b600060ff82169050919050565b60006122dd6122d86122d3846122ab565b611e95565b6122b5565b9050919050565b6122ed816122c2565b82525050565b600060408201905061230860008301856122e4565b6123156020830184611f28565b9392505050565b600061232782611d2e565b915061233283611d2e565b9250828203905065ffffffffffff8111156123505761234f6121d7565b5b9291505056fea26469706673582212208d9faa5a557b2963a1f0927d9241c63c1ae66f5d48267732b4a8678b6cd45e3b64736f6c634300081c0033",
  "linkReferences": {},
  "deployedLinkReferences": {}
}